:020000041000EA
:1000000000B5324B212058609868022188439860DF
:10001000D860186158612E4B002199600221596106
:100020000121F02299502B49196001219960352056
:1000300000F044F80222904214D00621196600F024
:1000400034F8196E01211966002018661A6600F04E
:100050002CF8196E196E196E052000F02FF8012189
:100060000842F9D1002199601B49196000215960AB
:100070001A491B48016001219960EB211966A021F2
:10008000196600F012F800219960164914480160C1
:100090000121996001BC002800D000471248134993
:1000A000086003C880F30888084703B5996A0420EC
:1000B0000142FBD001200142F8D103BD02B5186610
:1000C0001866FFF7F2FF186E186E02BD00000240BE
:1000D000000000180000070000035F00212200005C
:1000E000F4000018222000A00001001008ED00E03C
:1000F00000000000000000000000000074B24E7A12
:10010000B8FB0320C1010010B11D0010693D0010B3
:1001100000000000000000000000000000000000DF
:10012000000000000000000000000000B11D0010F1
:100130000000000000000000B11D0010B11D001003
:10014000B11D0010B11D0010B11D0010B11D001037
:10015000B11D0010B11D0010B11D0010B11D001027
:10016000B11D0010B11D0010B11D0010B11D001017
:10017000B11D0010B11D0010B11D0010B11D001007
:10018000B11D0010B11D0010B11D0010B11D0010F7
:10019000B11D0010B11D0010B11D0010B11D0010E7
:1001A000B11D0010B11D0010B11D0010B11D0010D7
:1001B000B11D0010B11D0010B11D0010B11D0010C7
:1001C00001F0F7FD084809490022814201D004C02E
:1001D000FBE707480749084A814202D008CA08C01D
:1001E000FAE700F0C1F900DEF0FB032000FC032079
:1001F000B8FB0320F0FB0320E8490010F0B503AF83
:1002000083B0002A10D00C4688180190084D26783B
:1002100002A90E700122284601F050FC0028F7D0F8
:10022000641C01988442F2D1002003B0F0BDC046A6
:1002300000400340F0B503AF83B0002A10D00C4655
:1002400088180190084D267802A90E7001222846D0
:1002500001F034FC0028F7D0641C01988442F2D1EC
:10026000002003B0F0BDC0460080034080B500AF61
:100270000068CA69D30604D4920605D403F002FAD2
:1002800080BD03F01BF980BD03F04CF980BDD4D4D0
:10029000D0B502AF82B00C460068017800290BD0BF
:1002A000401C0190084800900849042201AB2046F8
:1002B00002F042FD02B0D0BD05490422204602F002
:1002C000EFFC02B0D0BDC046AC3E0010A03E001016
:1002D000A43E001080B500AFCA69D30604D49206CC
:1002E00005D403F091FA80BD03F050F980BD03F00E
:1002F0008BF980BDF0B503AF85B00C4600230393A6
:10030000802904D203A804700193029320E0E00A3C
:100310000CD101933F202040803003A94870A009F0
:10032000C02202430A700120029011E0200C43D148
:100330003F202040803003A98870200BE022024338
:100340000A702005800E80304870012002930190D1
:1003500003A80678214D04A90E700122284601F059
:10036000ADFB0028F7D0802C23D303A8447804A940
:100370000C700122284601F0A1FB0028F7D002985A
:10038000002816D103A8847804A90C7001222846FD
:1003900001F094FB0028F7D00198002809D103A8A8
:1003A000C47804A90C700122284601F087FB0028BC
:1003B000F7D0002005B0F0BD3F212140803103A8D7
:1003C000C1702105890E80318170A103890E8031B1
:1003D0004170E102490FF031017095E700400340A0
:1003E000F0B503AF85B00C4600230393802904D2F7
:1003F00003A804700193029320E0E00A0CD101935A
:100400003F202040803003A94870A009C022024349
:100410000A700120029011E0200C43D13F202040BF
:10042000803003A98870200BE02202430A70200567
:10043000800E8030487001200293019003A8067856
:10044000214D04A90E700122284601F037FB002837
:10045000F7D0802C23D303A8447804A90C70012280
:10046000284601F02BFB0028F7D00298002816D16F
:1004700003A8847804A90C700122284601F01EFB11
:100480000028F7D00198002809D103A8C47804A94E
:100490000C700122284601F011FB0028F7D0002043
:1004A00005B0F0BD3F212140803103A8C170210576
:1004B000890E80318170A103890E80314170E10283
:1004C000490FF031017095E70080034080B500AF1F
:1004D0000A46024902F0B6F880BDC046C83E001088
:1004E00080B500AF0A46024902F0ACF880BDC046B4
:1004F000E03E00107047704780B500AF08460249E3
:10050000052202F0CDFB80BD593E0010D0B502AFF0
:1005100088B00C46011D07910949069107A905916C
:1005200009220492074903910749029101900B2087
:1005300000900649064B204602F0BAFB08B0D0BD39
:10054000903E0010843E0010743E00105E3E00108D
:10055000673E001080B500AF084602490B2202F04A
:100560009FFB80BDBC3E001080B500AF00F000F8DE
:1005700080B500AFD8B0F7480126066046608660B7
:10058000C660066146618661C66106624662866231
:10059000C662066346638663C66306644664866411
:1005A000C664066546658665C665066646668666F1
:1005B000C666066746678667C66700F039FD12A8FB
:1005C000EE49018000F01CFE00F07AFD01F0C0FA57
:1005D000EB490A78002A00D091E20E7001F0BEFAD1
:1005E00012AC204601F0CEFA002006900C9012AD1D
:1005F000E4490CAB2846224600F0D6FF28780028B4
:1006000000D081E219980890189C01F044FC05463E
:100610000A96354001F036FCDB480678002E00D102
:1006200075E2002D00D177E2002E00D079E2D748A4
:10063000016804220A4302600D940A980304D44816
:100640000361D44D286C402630432864D2480168A9
:1006500005220A431A218A430260D04C2068D049FF
:1006600008400293C0182060286830432860204664
:1006700008380168022319431D22D243114001604A
:1006800068680796304368602068099318430592AC
:100690001040206012AD2846294601F03FFB284655
:1006A000294601F023FB0EAC0698A071BD48A0803E
:1006B0004B20C1010E910F981390129153AD284613
:1006C000089E324601F0BCF92888002800D02BE2B1
:1006D000049453A988884988B34BD9603F240246C3
:1006E00022401A615A695A61B20F00D04CE2890166
:1006F000C14200D143E210200390539012A8011D83
:10070000821D431D53A801F0BDF95398A6494861C5
:10071000A648886103200B900863A04D286AA04971
:1007200008400299084328629A4A1069079B1843B7
:100730001061A86909990843059E3040A861506975
:1007400018435061286A08433040286212AD284699
:10075000294601F0C1FA2846294601F0A5FA0E996A
:1007600012AD2846089A01F06BF92888002800D0BD
:10077000DCE112A8818840888D4DE8600A4622405D
:100780002A616A696A618001C84200D1F7E1049870
:10079000431D821D011D0398129012A801F072F9E9
:1007A000129868618148A8610B9828630698119097
:1007B00012A8C11C0391811C0491401C05900A9849
:1007C00005020F20060200F033FC12A8FB4901804D
:1007D00000F016FD00F074FC1198C007F04800D03E
:1007E000001D029901600698169009981390F4482C
:1007F00012900A98159053A81490F248549011A89A
:10080000539012A812AAF04901F01CFF002800D052
:10081000ABE10698169009981390EC4812900A984C
:10082000159053A81490E748549011A8539012A81B
:1008300012AAE74901F006FF002800D097E10A98C4
:10084000010212A801F074FA08E000F0F1FB53A8CD
:10085000E049018000F0D4FC00F032FCD44B186871
:10086000C00600D5AFE01868C006EED4002295425D
:100870000BD01846183800683042E6D112A98854C7
:10088000521C1868C006F2D500E02A4613460B98A1
:10089000034012A8002B089021D0002012A908566E
:1008A000002803D4012B059805D118E012A8047084
:1008B000012B059813D012A80A994056002803D49A
:1008C000022B049805D10AE012A84470022B049868
:1008D00005D012A809994056002803981ED4042A6E
:1008E00021D253A812A902F095FA5398002800D0FB
:1008F00029E1559808905498079000F099FB53A867
:10090000B749018000F07CFC53A8B649018000F093
:1009100046FC0798089900F032FC9DE712A8847005
:100920000398042ADDD30899891802E0001D884243
:10093000D7D00023C356002B0ED40A9BC356002BDE
:100940000FD4099BC356002B10D40B9BC356002B0E
:10095000ECD510E0000100D004700A9BC356002BB8
:10096000EFD54470099BC356002BEED584700B9BCA
:10097000C356002BDAD5C470D8E7C0460300000088
:10098000FCFB0320001BB700FDFB032010E000E090
:10099000140000D004C00140844001400C400140DC
:1009A000FFFFFCFF030200001840034001030000AA
:1009B0001880034000F03CFB53A88B49018000F0F5
:1009C0001FFC00F07DFB7C4B1868C00600D58CE056
:1009D0001868C006EED4069A95420BD0184618380F
:1009E00000683042E6D112A98854521C1868C0062B
:1009F000F2D500E02A4613460B98034012A8002BBC
:100A0000089021D0002012A90856002803D4012BF9
:100A1000059805D118E012A80470012B059813D091
:100A200012A80A994056002803D4022B049805D135
:100A30000AE012A84470022B049805D012A8099964
:100A400040560028039823D4042A26D253A812A97A
:100A500002F0E0F9539800287BD1559808905498FB
:100A6000079000F0E5FA53A86149018000F0C8FB47
:100A700053A85C49018000F092FB0798089900F0A8
:100A80007EFB00F01DFB4C4B1868C006A0D52CE087
:100A900012A884700398042AD8D30899891802E010
:100AA000001D8842D2D00023C356002B0CD40A9BD1
:100AB000C356002B0DD4099BC356002B0ED40B9BA1
:100AC000C356002BECD50EE004700A9BC356002BD6
:100AD000F1D54470099BC356002BF0D584700B9B55
:100AE000C356002BDCD5C470DAE70DA8414901F0EC
:100AF00061F91199481C884220D6119063E601F0F3
:100B00002DF8244801F0DEF9234801F0DBF90A99B9
:100B10000170002D00D087E501F0B6F9002E00D15C
:100B200085E51E4801F0CEF91E4800E021480090FE
:100B30001D482B2112AA1D4B01F0D2FA2E481C2170
:100B40002E4A01F083FA55985790549856902248AF
:100B500004E05598579054985690244800901248B5
:100B60002B2156AA1D4B01F0BBFA274800E0244870
:100B700000900D482B2112AA224B01F0B1FA234814
:100B80001921234A01F062FA22482121204A01F06A
:100B90005DFAC046043F0010143F0010243F0010CF
:100BA000140000D034400010883F001014400010A2
:100BB0001840034024400010188003400400000047
:100BC000483F001005370010C83E0010683F001075
:100BD000E03E001006000000D43F0010B43F0010BB
:100BE000050000000200000008000000C43F0010E3
:100BF00007000000A0860100203E0010783F001092
:100C0000F43F0010E43F001004400010403E00108C
:100C1000DC3D0010F03D001080B500AF006801F031
:100C20005BF980BD7047D4D480B500AF84B0044672
:100C300001F028F90D480178002914D10121017033
:100C4000019400F0F5F902A80949018000F0D8FAF2
:100C500003A80849018000F0A2FA01A8064900F0A3
:100C6000A9FA00F02DFA00F009F8C046F0FB0320C5
:100C700009000000010000004440001080B500AFF2
:100C800001F00CF9F0B503AF81B004460020002A52
:100C90001CD02669E368BFF35F8F9E4201D9DD4314
:100CA0000DE00125AD02002E05D09D4215D3ED1AB1
:100CB000002D07D10AE09D420AD309D0DE43751901
:100CC000002D03D00095204600F020F801B0F0BDC3
:100CD00004482121054A01F0B9F902482121024ABC
:100CE00001F0B4F9704100109042001080420010F1
:100CF000D0B502AF82B0C368BFF35F8F0124A402F6
:100D0000009400F003F802B0D0BDD4D4F0B503AF26
:100D100083B014460646B868824200D304460020D9
:100D20001D1940419D423DD3012080028542029021
:100D300023D998423BD301967068002841D0029A8B
:100D4000D61AC0180A1A00D2421AB24239D30091F8
:100D5000324601F009F8B4422ED3019840680028C9
:100D60002FD000998919A21B0B1A00D2431A934263
:100D700027D300F0F9FF019E0BE07068002820D017
:100D8000C0180A1A00D2421AA2421AD3224600F010
:100D9000EBFF0298401E0540BFF35F8FF5602046D1
:100DA00003B0F0BD0D481C210D4A01F04FF9084871
:100DB0002121094A01F04AF905482121054A01F09B
:100DC00045F90248A62101F055F9C04654400010EB
:100DD000704100107042001060420010B0410010DD
:100DE00050420010F0B503AF83B02C4AD0780028F1
:100DF00032D0072810D20021C9438140107908431E
:100E00007F21014068460170254CE06A03210140C2
:100E100002290ED0244D0DE079308021014301A834
:100E200001701F4CE06A0321014002290AD01E4DC7
:100E300009E01C4D1834694601222046A8470028C5
:100E4000F9D007E0174D183401A901222046A84720
:100E50000028F9D001281DD102A800260670104CE8
:100E6000E06A03210140022901D00F4D00E00D4D41
:100E7000183402A901222046A8470028F9D00128E9
:100E800008D106480671C6700670407800F066FE0C
:100E900003B0F0BD0121054A01F09AFFF1FB0320E8
:100EA000B8FB0320850C0010F10C0010404200102C
:100EB000F0B503AF89B0002900D199E0054640188C
:100EC0000290534CE078534E05E0039D6D1C02994F
:100ED0008D4200D18CE02978C2B2072A039516D240
:100EE000002947D004A80170F06A032101400229BB
:100EF000494C00D0494C3046183004A90122A04783
:100F00000028F8D001287FD1414CE07837E0002953
:100F100054D007A80170F06A03210191084002280B
:100F20003D4C00D03D4C3546183507A901222846D6
:100F3000A0470028F7D0012866D1354CE078401C46
:100F4000C1B20A1A531E9A41814258D1E0708629D3
:100F5000BBD108A8FF210170F06A0199084002285E
:100F60002D4C00D02D4C08A901222846A04700286E
:100F7000F9D036E00121914022790A432271C0B2B2
:100F8000401CC1B20A1A531E9A41814232D1E0700C
:100F900007299AD12179002997D005A80170F06A14
:100FA0000321014002291C4C00D01C4C3046183053
:100FB00005A90122A0470028F8D012E0793080214D
:100FC000014306A80170F06A032101400229124C76
:100FD00000D0124C3046183006A90122A047002844
:100FE000F8D0012810D10A4C00202071E0706CE785
:100FF00009B0F0BD0B481C210C4A01F027F8094844
:101000001C21094A01F022F80121054A01F0E0FE05
:10101000F1FB0320B8FB0320850C0010F10C00103D
:1010200040420010B041001094410010CC4100102B
:10103000B0B502AF86B000F08BFD19490A78002ADE
:1010400021D101220A7048708878002815D18A7051
:10105000684600210170164CE06A03210140022914
:1010600001D0154D00E0134D183469460122204689
:10107000A8470028F9D0012801D106B0B0BD012150
:101080000E4A01F0A5FE00200490012101910549BE
:1010900000910390044802906846044900F0A6FFBE
:1010A000F1FB0320C0420010FC4000102843001058
:1010B000B8FB0320850C0010F10C0010404200101A
:1010C00080B500AFFFF78EFE80BD80B500AFFFF7A3
:1010D000EFFE80BD80B500AF02684068C36810466F
:1010E000984780BD80B500AF82B000200190802974
:1010F00003D201A8017001212FE0C80A0AD13F20C4
:101100000840803001AA50708809C0210143117045
:10111000022122E0080C0ED13F200840803001AAB5
:101120009070080BE023034313700805800E803095
:101130005070032111E03F220A40803201A8C270A2
:101140000A05920E803282708A03920E80324270BB
:10115000C902490FF0310170042101A8FFF7B5FF62
:10116000002002B080BDD4D480B500AF0A46024949
:1011700001F068FA80BDC046384300107047B0B532
:1011800002AF82B00C460546019101A80421FFF789
:101190009CFF28462146FFF798FF02B0B0BD80B5FE
:1011A00000AF82B0018801A801800221FFF78DFF06
:1011B00002B080BDD0B502AF8CB00291019000208A
:1011C0000790012404940A480390069409A8059006
:1011D00008480A9001A809900BA8074903AA01F042
:1011E00031FA06482146FFF770FF0CB0D0BDC0466B
:1011F00050430010D5100010384300105843001021
:1012000080B500AF82B0018801A801800221FFF7FC
:101210005CFF00F00AF802B080BD80B500AF084660
:101220001146FFF752FF002080BD704780B500AF28
:1012300000F000F880B500AF014800F033FFC04671
:10124000B4430010194A936F9B0808D21066516688
:10125000FFE7FFE7FFE7FFE7516F106F704770B5DB
:10126000136E546E556F166FFFF7F0FF13665466DA
:101270005567166770BDC0460C4A936F9B0808D22D
:101280009066D166FFE7FFE7FFE7FFE7516F106F5A
:10129000704770B5136E546E556F166FFFF7F0FF01
:1012A000136654665567166770BD0000000000D0D5
:1012B000F0B503AF89B01C46164608900D68284665
:1012C000294600F00BFB002800D1DBE007960594CF
:1012D000AE4C204608380268914201D9026801608C
:1012E00022460C3A13680226069633430126B3437E
:1012F0001360221F1368042B08D01368042B05D039
:101300001368042B02D01268042AF2D1026801602B
:10131000284600F0E3FA002800D1B4E00898016103
:10132000079805682846294600F0D8FA002800D119
:10133000ACE06068814201D9606861609448089BB4
:1013400022680126B24322605861A268012A14D0A3
:101350002268B24322605861A268012A0DD0226837
:10136000B24322605861A268012A06D02268B243C3
:1013700022605861A268012AE2D12068E022079227
:1013800090432060206830432060A068022808D085
:10139000A068022805D0A068022802D0A068022810
:1013A000F3D160686160284600F098FA00286AD09E
:1013B000089804914161059806683046314600F06E
:1013C0008DFA002862D00D46E069814201D9E069BA
:1013D000E5610596A0696F490840A0610898C16958
:1013E000002905D06C48FFF72DFF401C00F04EFD92
:1013F000A06907998843A0610126F102A0690391C1
:101400000843A061E069E5612946059D284600F092
:1014100065FA002837D00898C1612846294600F0AF
:101420005DFA002832D0A06A814201D9A06AA16287
:10143000606A584A104060620898026A002A08D020
:1014400055480D461146FFF7FDFE401C00F01EFDFD
:101450002946606A079A90436062606A039A104363
:101460006062A06AA162059D284600F037FA002854
:1014700009D0089A1162494EB5420BD20026304677
:1014800009B0F0BD0226304609B0F0BD069E3046D8
:1014900009B0F0BD0120B542029001D1060219E069
:1014A0003E492846FFF7CEFE01904643B54267D33A
:1014B000AE1B30023949FFF7C5FE0546B72130465D
:1014C000FFF7C0FE310E00D00546019800022E182D
:1014D000089A059D606B864201D9606B6663206B3C
:1014E0002C4908402063516A002905D02A48FFF79B
:1014F000A9FE401C00F0CAFC206B079988432063BA
:10150000206B039908432063606B6663284631466D
:1015100000F0E4F900282FD008984162049D284685
:10152000294600F0DBF90028069EACD0E068194A95
:101530001040E06008988269002A09D016480D46DC
:101540001146FFF77FFE401C00F0A0FC2946049DD9
:10155000E068079A9043E060E068039A1043E06017
:10156000284600F0BBF90028029E8CD008988161C3
:101570000326304609B0F0BD029E304609B0F0BDEA
:1015800007482121074A00F061FDC0463C80004029
:10159000001BB700FFF7FFFF405973071BB70000A0
:1015A0001044001054450010F0B503AF97B00A4640
:1015B0000646B8480818B849884200D950E1B74CE7
:1015C000251F55200790400128607D20C102099207
:1015D0001046FFF737FE8001A060B1482860206800
:1015E000002808D42068002805D42068002802D4E8
:1015F00020680028F3D5089609980A90A949FFF7B2
:1016000021FE012569020143A7480160A74C002083
:10161000A0640B900C900D900E901490139012906B
:10162000A3491191E068A843E0606069012811D0E6
:10163000E068A843E060606901280BD0E068A84337
:10164000E0606069012805D0E068A843E060606957
:101650000128E7D1109120680326B0432060A068DC
:10166000012811D02068B0432060A06801280BD069
:101670002068B0432060A068012805D02068B043EE
:101680002060A0680128E6D10F918A4809990A18BC
:101690008948824200D9E9E006928848FFF7D2FDE6
:1016A000024600210998059204910B4602F04EF97A
:1016B0004A1E9141012900D1E6E003902903804BA5
:1016C0001846083802688A43029002601A680A4283
:1016D00008D11A680A4205D11A680A4202D11A686A
:1016E0000A42F3D077492D20019048600498886021
:1016F0000D60059882B28A604A6821200590824375
:101700004A600A68002A08D40A68002A05D40A68D0
:10171000002A02D40A68002AF3D531225203CA6093
:101720004A680820049082434A600C210398FFF71E
:1017300089FD1590E068A843E0606069012811D038
:10174000E068A843E060606901280BD0E068A84326
:10175000E0606069012805D0E068A843E060606946
:101760000128E7D1524A109209992068B0432060BD
:10177000A068012811D02068B0432060A06801282B
:101780000BD02068B0432060A068012805D02068F5
:10179000B0432060A0680128E7D10F924A48069A1A
:1017A000824228466AD849480E46FFF74BFD044658
:1017B00000213046224609910B4602F0C7F84A1E26
:1017C0009141012960D001225103029E33688B436D
:1017D00033603B4E33680B4208D133680B4205D16E
:1017E00033680B4202D133680B42F3D03849019B76
:1017F0004B60099B8B600A60A2B28A604A68059BB5
:101800009A434A600A68002A08D40A68002A05D464
:101810000A68002A02D40A68002AF3D5079A12033C
:10182000CA604A68049B9A434A601921FFF70AFD7F
:1018300016900BA80AA915AA16ABFFF739FD0646A4
:10184000C0B2032819D1089E301D0BA91CC91CC0A9
:101850001CC91CC03CC93CC00998307017B0F0BD11
:101860000020B0700120308017B0F0BD08998E7054
:10187000FF200230088017B0F0BD022008998E705A
:1018800048700D7017B0F0BD12482121124A00F0C7
:10189000DDFBC046C0BDF0FF809FD5000440024084
:1018A00000B0FA0040420F002C800540308000401C
:1018B000001BB700C0B4B3FFAF374A05002F68590B
:1018C00008C00040008002407F1D2C04008C864729
:1018D00000C00240304500108C440010F0B503AF4A
:1018E00083B0054601200402A9422DD00E460029EE
:1018F0002DD0029028463146FFF7A4FC010E03D0FC
:101900000020214603B0F0BD002101903246009135
:101910000B4602F01BF84A1E91411DD1281A20D314
:101920001749491C884202D20002314602E0A64211
:1019300021D3310AFFF786FC019909020C1800989F
:1019400040418C42029811D3214603B0F0BD0D48AE
:101950001921144A00F07AFB10482121104A00F0A6
:1019600075FB0C4821210C4A00F070FB07481C2134
:10197000074A00F06BFB03481921034A00F066FB9D
:10198000FFFFFF00F043001064450010D04300103B
:1019900074450010104400105445001030450010EC
:1019A0001445001004450010F0B503AF89B000F0F5
:1019B00072FA01240D2109070968C9B2002903D070
:1019C000012929D1022500E0254619490978BFF3EC
:1019D0005F8FA94202D1022009B0F0BD20400190E2
:1019E00000F050FA134E306800280FD101980028FB
:1019F00007D100F049FA00F045FA30680028F8D025
:101A000004E000F03FFA30680028FAD0084805707A
:101A10000198604009B0F0BD00200690039406498B
:101A20000291059008A8049002A8044900F0DEFA8B
:101A3000F6FB03207C0100D0C845001030460010A2
:101A4000D0B502AF04460123002915D0500F13D1A1
:101A5000D000FFF7F7FB0023C10904D0084A9042E9
:101A600004D3064900E00121184603E07F2210401C
:101A7000401C4008A08061802380D0BDFFFF000093
:101A800080FF7F00D0B502AF1C780368002C03D024
:101A9000022C06D1022402E0022423430424A3439F
:101AA00001E0062423436824A34309784907090E6B
:101AB00019431278D2000A430260D0BDF0B503AFDB
:101AC00081B08B18002A23D004460020A569AD06FA
:101AD00027D40D182E7826606D1C9D4218D0A6695B
:101AE000B60619D42E7826606D1C9D4210D0A669CA
:101AF000B60615D42E7826606D1C9D4208D0A669C6
:101B0000B60617D42E782660001D6D1C9D42DDD1CF
:101B10000021184601B0F0BD401C002803D10CE0A4
:101B2000801C002809D082420BD30B18111A1846CA
:101B300001B0F0BDC01C0028F5D10023184601B04B
:101B4000F0BD024B11461A4601F042F9A8460010BA
:101B500080B500AFFFF728FF80BDD4D480B500AFBB
:101B6000C1B2022909D0054900220A7004490122A4
:101B70000A60000601D000F087F980BDF6FB032063
:101B80007C0100D0D0B502AF0120000243490A68B1
:101B900002430A600A6820231A430A60404A00246C
:101BA000146114600A689A430A608A68920608D42D
:101BB0008A68920605D48A68920602D48A689206D8
:101BC000F3D50A6882430A608A68024208D18A68AB
:101BD000024205D18A68024202D18A680242F3D0E9
:101BE0004020C0432F490A6802400A604A68024008
:101BF0004A608A6802408A60CA680240CA600A690C
:101C000002400A614A6902404A618A6902408A6167
:101C1000CA690240CA610A6A02400A624A6A02400C
:101C20004A628A6A02408A62CA6A0240CA620A6BCF
:101C300002400A634A6B02404A638A6B02408A632D
:101C4000CA6B0240CA630A6C02400A644A6C0240D2
:101C50004A648A6C02408A64CA6C0240CA640A6D93
:101C600002400A654A6D02404A658A6D02408A65F3
:101C7000CA6D0240CA650A6E02400A664A6E024098
:101C80004A668A6E02408A66CA6E0240CA660A6F57
:101C900002400A674A6F02404A67D0BD00C0004058
:101CA000100000D004C001400120C00509490A46C7
:101CB000083A1368834313600A68024208D10A682D
:101CC000024205D10A68024202D10A680242F3D0F8
:101CD0007047C04608C000400120C00502490A689C
:101CE00002430A607047C04600C0004001208005E2
:101CF00009490A46083A1368834313600A68024296
:101D000008D10A68024205D10A68024202D10A6873
:101D10000242F3D07047C04608C000400120800551
:101D200002490A6802430A607047C04600C000408A
:101D3000F0B503AF81B00C46094D2B88002B0AD1BA
:101D400014210A8818210B88064906461046984730
:101D5000034630462B8000212246984701B0F0BD53
:101D6000F8FB032053340000F0B503AF83B00E4DF1
:101D70002B88002B02D0984703B0F0BD14231B889A
:101D8000182424880194094E029018460C463146C6
:101D90001646019A904721463246034602982B8008
:101DA000984703B0F0BDC046FAFB03204D43000046
:101DB000FEE77047F0B503AF85B00A46006800241F
:101DC0002146234601F0C2FD06460291284A2346D9
:101DD00001F0E1FD03900191012004900204264BE3
:101DE0002649274DAD1B029881411ED303982149F6
:101DF0000840012813D9401E5860002098601868D8
:101E00000499084318601868104208D118681042F5
:101E100005D11868104202D118681042F3D0186832
:101E200004998843186005B0F0BD019E3102039803
:101E3000050E6818310E0F4D5D609C601E68049D94
:101E40002E431E60264606E00025641C6E41251ABE
:101E500035468D41CAD21D681542F5D11D6815421F
:101E6000F2D11D681542EFD11D681542F3D0EBE7A2
:101E700040420F00FFFFFF0010E000E0420F0000B3
:101E8000FFFFFF3F72B6704762B670474008401CC4
:101E90000138FDD17047EFF31080704700DEFEDEA1
:101EA0000068FEE77047704702480349034A044B45
:101EB0007047C0460DA33865B71A020DA373479A41
:101EC0000D13C6AE80B500AF024602482B2100F0CC
:101ED000BDF8C046C5460010F0B503AF8FB004464C
:101EE0004D698E69F36838490C2228460293984759
:101EF000012100281FD10191E06800210091079184
:101F000003210491314A0392069109A905913049B0
:101F10000E9102460C320D920C91014608310B9144
:101F20002C490A91099003AA2846314600F08AFB01
:101F3000002803D0019908460FB0F0BDA068002822
:101F40000BD00446244902222846029B98470028C9
:101F50001FD0019908460FB0F0BD26686068C168BF
:101F6000304688471D4C4C401D494140214326D1F5
:101F70001C4842401C484340134320D116490222CA
:101F80002846029CA047002813D0019908460FB0AC
:101F9000F0BD09AA1046029525461ACD1AC01ACDE1
:101FA0001AC00298314600F04DFB00280199C2D1B9
:101FB00005E006CE2846A04700280199BBD100992C
:101FC00008460FB0F0BDC04608470010F0460010AC
:101FD0000938001011390010144700108116BCFD9B
:101FE00064EFB100C17B1ECD9CC8A2C180B500AF1B
:101FF00086B001AA01231382049103900348029042
:10200000034801901046FEF70FFEC0461847001027
:10201000B846001080B500AF8CB000920A4601A906
:102020000C4668C868C468C868C407A8427400221F
:102030000274009A0A920991024908910249079193
:10204000FEF7F2FD18470010B846001080B500AF4B
:1020500088B0002304930124019406AC00940393F8
:10206000034B02930791069068461146FFF7BEFFA7
:10207000B846001080B500AF88B00A460021049130
:102080000123019306AB00930391044B0293079243
:1020900006906846024AFFF7BDFFC046B8460010EA
:1020A0004847001080B500AF0146014800F002F833
:1020B0006847001080B500AF88B00022049201226A
:1020C0000192054B0093039206AA0292034A0792DB
:1020D00006906846FFF78AFFBC46001011390010D1
:1020E00080B500AF8EB00191009003930292002062
:1020F0000890022005900849049107900AA80690CC
:1021000006480D9002A80C9005480B9068460A906E
:1021100004A8B968FFF76AFF74470010013900107E
:1021200011390010F0B503AF93B0012306939B1A49
:10213000029302239B1A0193534205930E91491E69
:102140000391016809914168089180680D90002011
:10215000014600900346079213E00398015D0A3997
:10216000484248410E99C918E21A0D9B1870089808
:10217000C3680998984705433346079A0F9900D0DA
:10218000F7E09142109304D9D8E09142109B00D916
:10219000D4E00E984018541A082C129023D28A4288
:1021A00000D1E3E005980E46411800231298C05C68
:1021B0000A284BD0CD18681C00D3BDE01298C41873
:1021C00060780A2844D0A81C00D1B5E0A0780A287D
:1021D00041D0E81C00D1AFE0E0780A283ED01B1DBA
:1021E000C818E3D1A8E0C51C0322049295432A1A1B
:1021F0000B9427D0C3435B1911932B1A9C1E0F9489
:10220000DB1E0C93009BC65C0A2E00D183E0119C60
:102210009C4212D0C61874780A2C22D00F9C9C4283
:102220000BD0B4780A2C1ED00C9C9C4205D0F478BC
:102230000A2C1AD01B1D9A42E5D10F910B98083831
:10224000119027E00F91083C119410E0314663E0B3
:102250005B1C314660E09B1C31465DE0DB1C314677
:102260005AE05B1C57E09B1C55E0DB1C53E041CD62
:102270000446424B5C40424964188443304658400F
:102280004018B04320433F49083D084204D1083577
:10229000083211988242EAD90B98801A0B904AD0E2
:1022A00012988518059880180F9940180A9002987E
:1022B0008018401811900198801840180C90049EC6
:1022C000AB19D81E00780A281DD011988019032850
:1022D00031D03446981E00780A2816D00C98001980
:1022E000032828D0581E00780A2811D00B98A04245
:1022F00021D02646285D0A280CD0361D0A98801960
:102300000328DDD117E0F61E04E02646A61E01E0F4
:102310002646661EB318079A5818411C904200D3EF
:1023200033E71298C05C0A2800D02EE700250E463D
:102330000C46109B07E0079A1146109B9342069D9E
:1023400014461E4614D00F910D980078002808D02E
:102350000898C368042209980B499847109B0028E5
:1023600009D19C4200D0F8E60020FBE61146E5E7E3
:10237000002013B0F0BD069813B0F0BD0A0A0A0A97
:10238000FFFEFEFE80808080A83E0010F0B503AF07
:1023900081B070C8307800280DD0EB680422204648
:1023A00000940C46094998472146009C002802D019
:1023B000012001B0F0BD08460A3842424241327065
:1023C0002A692046904701B0F0BDC046A83E0010E3
:1023D000F0B503AF95B004790126002C344603D044
:1023E0004671047115B0F0BD03930696BB68029365
:1023F00044790568EB695E070790059207D4002CC5
:102400004DD0494B002C04914DD103224CE0002CBF
:102410000ED16869AB69DE683E4C03220491214607
:10242000B04704990028069E34460798D8D1EB6936
:102430000BAA0124147020242E5D01960CAE019885
:1024400030550A92139334481290A869099068692C
:10245000089028691090E8680F90A8680E90686846
:102460000D9028680C9008A81190059AFFF75AFE65
:1024700000280DD108A829490222FFF753FE0028A1
:1024800006D10298C2680CA903989047002833D05F
:10249000069E344607984671047115B0F0BD214B75
:1024A000002C0491B1D002226869A969CE6819464E
:1024B000B0470028069E34460798059A04998FD1A4
:1024C0006869AB69DB68984701460798002934467C
:1024D00086D16869A969CB681049022298470146EC
:1024E00007980029344600D07AE70298C26803981A
:1024F000294690470446CDE71298C36811980849C9
:102500000222984704460798069E4671047115B04A
:10251000F0BDC046A147001084470010704700106E
:10252000A44700109C4700109F470010F0B503AF70
:1025300095B00668037A0124002B04D00472711C44
:10254000016015B0F0BD06944568EB695C07079023
:1025500008D4002E15D0354B002E0591049215D1CC
:10256000012214E0002E26D1049205916869A96920
:10257000CB682A49022298470028069C18D0079861
:10258000DCE7294B002E05910492E9D0022268690C
:10259000A969CC681946A04700280798069CCDD1A8
:1025A0000499CA6805982946904704460798C5E7E4
:1025B000EB690599049A01960BA803900124047015
:1025C00020202C5C02940CAC029E265403980A90A6
:1025D00013931348129008A81190A869099068698C
:1025E000089028691090E8680F90A8680E906868B5
:1025F0000D9028680C90D268084621469047002824
:1026000002D00798069C07E01298C3681198054904
:102610000222984704460798019E8FE7AA470010B8
:1026200084470010A4470010A94700109F470010DE
:1026300080B500AF0A46024900F004F880BDC046EC
:1026400084470010F0B503AF91B0202408AD0323F8
:1026500006952B550C9400230DAC0BC40A930893DC
:102660001569002D61D05069002800D181E00699DC
:10267000203106911F21C906431E8B43591C01912D
:102680004001049090680790029216680024059516
:102690007268002A06D00E98C36831680D98984772
:1026A000002875D12819017F069A117001690C91D3
:1026B00081690F918368C2680021002B0CD0012B27
:1026C0000B460AD1D200079B9D186A68334B9A4289
:1026D0000B4602D12A681268012309920893059DCE
:1026E0002B59022B0FD04268012B0AD1D200079B35
:1026F0009A1803925268294B9A4204D103990968A7
:102700000A680121FFE70B920A914069C100079A0C
:10271000505851184A6808A99047002838D12034E9
:1027200008360498A042B3D121E0D068002820D018
:10273000946807214907431E8B43591C0191C5002A
:10274000029216687268002A06D00E98C368316833
:102750000D98984700281BD105CC08A9083C904744
:10276000002815D10834083D0836002DEAD1029A18
:10277000019B506883420ED21146D8000A68115856
:10278000101842680E98C3680D989847002802D028
:10279000012011B0F0BD002011B0F0BDA11E00104D
:1027A000F0B503AF8BB008930A920546FC68002988
:1027B00009D0EA69012010400ED02B2107910119A0
:1027C00050070FD405E0EA69611C2D2007905007DF
:1027D00008D400200A903EE0112109040791011954
:1027E0005007F6D509910899102905922BD2002996
:1027F0002DD003950494032308461840069004291D
:1028000000D385E00020024606990029049C039D20
:102810001ED00A998B564021C9438B4200DD401CD3
:10282000069B012B14D00A9B9A180123D3568B4286
:1028300000DD401C069B022B0AD00223D2568A429E
:1028400006DD401C04E00A9800F0FCFB00E00020DC
:1028500009994118059AB86806902868002819D087
:102860006E688E4216D9100704942AD42020285C62
:10287000731A810001A251588F46C0468B2900105F
:102880008D280010852900108D2800100021184681
:102890000B467AE026466C69AD69089800902046A0
:1028A0002946079A0A9B00F0ADF8002802D00120C3
:1028B0000BB0F0BDEB6820460699324698470BB046
:1028C000F0BD09912020295C029101210591295434
:1028D00028690190302028616C690395AD690898DA
:1028E000009020462946079A0A9B00F08BF80028A2
:1028F00067D1039820300A900998301A461C761E3A
:102900002FD02A693021204690470028F7D058E080
:102910000C250D400020024603E0121D954200D117
:1029200072E70A998E564021C9438E4200DD401C51
:102930000A9CA618012434578C4207DC0224345721
:102940008C4208DCF4568C42E7DD08E0401C02248F
:1029500034578C42F6DD401CF4568C42DDDD401CC1
:10296000DBE7EB6820460699049A9847002805980B
:10297000A5D102980A990870039801990161002075
:102980000BB0F0BD5808591C4B080393441C286930
:10299000099028466D69866901200590641E06D05D
:1029A00032692846099990470028F7D009E008982D
:1029B000009028463146079A0A9B00F023F8002829
:1029C00002D005980BB0F0BDF36828460699049A2A
:1029D00098470028059800D071E700240399A14288
:1029E00009D03269284609999047641C0028F5D01F
:1029F000601E039900E00846884200D257E7002095
:102A00000BB0F0BDF0B503AF81B01C460D461121EF
:102A100009048A420AD02B690646114698470146A6
:102A20003046002902D0012001B0F0BD002C05D0B5
:102A3000BA68EB682146984701B0F0BD002001B0AC
:102A4000F0BDD4D4F0B503AF89B014460D4682680A
:102A5000069006683346134300D1BEE0002A08956D
:102A60006FD00796059429190698C468002C36D0B3
:102A700011221004039007229004029000222E4697
:102A8000019104E06E1C501B8219641E29D08E42F5
:102A900044D035460026AE57002EF3D5F6B2E02ED0
:102AA00019D3F02E19D369783F2001400346E87806
:102AB000184009030491A9788906090D049BC918D7
:102AC0000818B104029E314040180399884225D06D
:102AD0002E1D0199D7E7AE1CD5E7EE1CD3E70022E7
:102AE0002E468E421AD000203356002B1AD5DBB268
:102AF000E02B17D3F02B15D37078F1783F240C40DE
:102B00008006800BB1788906090D0818001959074D
:102B1000C90A401811210904884203D1059C089D67
:102B2000079E0EE0002A059C089D079E08D0A24241
:102B300005D2A8563F21C943884201DA01E000D1FD
:102B40001446002E49D006984668102C2AD2002C34
:102B500040D004960326204630400790042C05946C
:102B600045D200210B4607980028059C049E1ED0E4
:102B7000E8564022D243904200DD491C07980128C4
:102B800015D0EB1801201856904200DD491C07981B
:102B900002280CD002201856904208DD491C8E42B3
:102BA00007D81AE02846214600F04CFA01468E422A
:102BB00013D9731A20210698425C00210594C0465F
:102BC0007A441279520097443D013A3D002019465B
:102BD000034637E000218E42EBD8069841698069B0
:102BE000C368084629462246984709B0F0BD0C2222
:102BF000224000210B4603E0089D1B1D9A42B2D0E3
:102C0000E8564024E543A84200DD491C0898C41852
:102C100001202056A84207DC02202056A84208DCEA
:102C2000A057A842E8DD08E0491C02202056A8422F
:102C3000F6DD491CA057A842DEDD491CDCE7590837
:102C4000581C430804934E1C069801690791446977
:102C50008569761E06D02A69204607999047002884
:102C6000F7D01AE0EB6820460899059A98470028A3
:102C700013D100260499B14209D02A692046079948
:102C80009047761C0028F5D0701E049900E0084695
:102C9000884202D3002009B0F0BD012009B0F0BD88
:102CA000D0B502AF43698069C4681846A047D0BD5B
:102CB000B0B502AF84B01C4605464069AB69DB681D
:102CC0009847014602A800224271017102953969B4
:102CD0000091BA68FB682146FFF77AFB396A0091D8
:102CE0003B4614330ECBFFF773FB01794079002884
:102CF00005D0002908D00121084604B0B0BD481E07
:102D00008141084604B0B0BD0299087F400705D450
:102D100048698969CB680749022204E048698969E2
:102D2000CB680349012298470146084604B0B0BD6C
:102D3000A6470010A7470010F0B503AF83B01C46AC
:102D4000164605464069AA69D36832469847014647
:102D500068460172714271414172019500210091F2
:102D6000BA682146FFF7E2FB027A0099002904D0F5
:102D70000120002A06D003B0F0BD501E824110464B
:102D800003B0F0BD6A46537A5A425A4101290146BE
:102D900000D11146019C01290ED0217F49070BD497
:102DA0006369A169CE680849012205461846B04703
:102DB000014628460029DED16069A169CB68034934
:102DC0000122984703B0F0BDAC470010B846001090
:102DD00080B500AF00F000F880B500AF8CB0019175
:102DE000009000200690022003900849029105906F
:102DF00008A8049006480B9001A90A91099068461A
:102E0000089002A81146FFF7F1F8C046D848001014
:102E100009380010F0B503AF87B00190D01F0690BD
:102E200001D200200690002A00D1DFE0C81C032355
:102E300002939843401A039050420490002403E008
:102E4000641C944200D3D1E0085D43B2002B56D4F9
:102E50000398001B8007F3D1069884422ED22046A7
:102E60000C580B185E682643744C264200D0B4E020
:102E700004460834069DAC4220D29E68DD68354386
:102E80006E4E35421AD104461034069DAC4215D21E
:102E90001D695E692E43694D2E420FD104461834D8
:102EA000069DAC420AD29D69DB692B43634D2B42E0
:102EB00004D12030069B98420446D1D39442C0D21C
:102EC00008570028BDD404980019431C00D38DE096
:102ED0000B1901255D57002DB2D4851C00D185E06A
:102EE00002255D57002D7DD4C01C7FD00298185656
:102EF000002879D4241D04980019E1D176E0504DC2
:102F00002E5C01250595042E1DD0032E0BD0022E1C
:102F100076D1601C904277D2059E0B564025ED433A
:102F2000AB4258DD73E0661C0025009596426AD2DC
:102F30008E5DE02816D0ED281ED16020C04373B20C
:102F4000834227DD5CE0661C0025009596425AD23C
:102F50008E57F0280BD0F42826D17020C04386422B
:102F60002ADD4DE0E0200640A02E13D048E0703668
:102F7000F0B2302820D343E018461F30C0B20C28EE
:102F800070B203D3DBB25B08772B39D13F23DB432D
:102F9000984235DAA01C904243D2059E0B5640253C
:102FA000ED43AB4217DD39E00F33D8B2022827D802
:102FB0003F20C043864223DAA01C904223D2085609
:102FC0004023DB43984224DCE01C904229D2059E3A
:102FD0000D569D4224DC441C33E70446944200D243
:102FE0006EE72EE7A41C2CE7E41C2AE70198416059
:102FF00001468260002005900598086007B0F0BD8A
:103000000598029008E00CE00020009009E002968C
:1030100006E0022002900598009002E00220029053
:1030200000960298C0B200020099081801994C60FD
:1030300088600598086007B0F0BDC0468080808039
:10304000E8480010F0B503AF88B00246C01C032466
:10305000A0430690861AB142079400D269E18B1B07
:103060009808009000D164E1039318462040049032
:1030700000230698904205931FD0111AE34399420A
:1030800000D8DDE10023194606989042079C14D031
:1030900055564020C043854200DD5B1C012E0CD0FC
:1030A000511801254D57854200DD5B1C022E04D0CE
:1030B00002254957814200DD5B1C921904980028C3
:1030C00021D00398A04315461018002105914256BF
:1030D0004021C9438A4201DD01220592049A012A56
:1030E00010D0012282568A4202DD059A521C0592B6
:1030F000049A022A06D002228056884202DD0598F0
:10310000401C05902A460598C0180690EA48009D84
:1031100014E000232D1B51180491190A1646E54AA4
:1031200013401140C918E24A5143090C069A8A1803
:10313000069205990029049A00D046E1002D00D19D
:1031400040E1C02D2C4600D3C0242146079B1940E6
:103150000591A100042DDCD3029110390B095B1CF1
:10316000302903920194049302D2002316467AE098
:1031700000951946079B99430023164672689409E7
:10318000D243D209224302403468A509E443E4094A
:103190002C430440E318D218B3689C09DB43DB09D5
:1031A000234303409A18F3689C09DB43DB0923435C
:1031B00003409A1833699C09DB43DB09234303402E
:1031C0009A1873699C09DB43DB09234303409A186F
:1031D000B3699C09DB43DB09234303409A18F36975
:1031E0009C09DB43DB09234303409A18336A9C099B
:1031F000DB43DB09234303409A18736A9C09DB43D2
:10320000DB09234303409A18B36A9C09DB43DB09BB
:10321000234303409A18F36A9C09DB43DB092343E9
:1032200003409A18336B9C09DB43DB0923430340BB
:103230009A18736B9C09DB43DB09234303409A18FC
:10324000B36B9C09DB43DB09234303409A18F36B00
:103250009C09DB43DB09234303409B184036091FCD
:103260008CD1009D019C0499079A11400491029908
:10327000039A00D14EE771688A09C943C90911430D
:10328000014032689409D243D20922430240D21845
:103290008918B2689309D243D2091A4302405118DF
:1032A000F2689309D243D2091A4302405318049991
:1032B00001293AD071698A09C943C90911430140FA
:1032C00032699409D243D20922430240D2188918A4
:1032D000B2699309D243D2091A4302405118F269E4
:1032E0009309D243D2091A43024053180499022980
:1032F0001BD0716A8A09C943C90911430140326A66
:103300009409D243D20922430240D2188918B26AE2
:103310009309D243D2091A4302405118F26A930921
:10332000D243D2091A4302405318039A019C0299CE
:10333000F0E6002908D008462040059004290692AE
:1033400005D2002004462CE0002008B0F0BDA143C7
:103350000020044604E01046241DA142069A20D015
:1033600016574025ED43AE4200DD401C16190123DF
:10337000F356AB4200DD401C0223F356AB4205DCA2
:10338000024607983356AB42E5DD04E0421C07983D
:103390003356AB42DFDD1046501C241DA142069A75
:1033A000DED1059900290BD011460246085740216D
:1033B000C943884233DC1046059A012A069A34D163
:1033C00008B0F0BD069808B0F0BDFC210C40A2008A
:1033D000B1588B09C943C9091943059B0140012B09
:1033E00011D0B2181D4653689C09DB43DB09234307
:1033F00003405918022D06D092689309D243D2098E
:103400001A4302405118080A2A4A11401040401835
:1034100027494143080C0699401808B0F0BD1046F2
:10342000501C059A012A069ACAD003461219012097
:10343000105688422CDC1846059B022BC0D02CE08D
:103440000023194603E02646091D00D11CE6344638
:1034500056564025ED43AE4200DD5B1C5618012058
:103460003056A84208DC02203056A84209DC0798F2
:103470003056A842E7DD09E05B1C02203056A84226
:10348000F5DD5B1C07983056A842DCDD5B1CDAE7F3
:103490001846581C059B022B92D00346022010565A
:1034A000884202DC184608B0F0BD581C08B0F0BDD8
:1034B00001000100FF00FF0001010101F0B503AFB1
:1034C000A3B00C46007842090109052A05D35731FB
:1034D0007E2503AA102805D305E030317E2503AAF6
:1034E000102800D2515D51550F2101400A2901D306
:1034F000573100E0303113467E33597001210223E9
:1035000010280E4600D31E460196102800D27F25B3
:1035100050190090024A2046FFF742F923B0F0BD4F
:10352000D8470010F0B503AFA3B00C4600784209AD
:103530000109052A05D337317E2503AA102805D3B2
:1035400005E030317E2503AA102800D2515D515587
:103550000F2101400A2901D3373100E030311346F1
:103560007E3359700121022310280E4600D31E46D7
:103570000196102800D27F2550190090024A20465B
:10358000FFF70EF923B0F0BDD8470010B0B502AF79
:10359000A2B00068812207E0573402AB9B18DB1E03
:1035A0001C70921E000A15D00F2304461C400A2CE2
:1035B00001D3573400E0303402ADAD18AD1E2C708D
:1035C000040904D01C400A2CE6D23034E5E7901EF2
:1035D000521E00E0501E81280ED281239A1A0192B9
:1035E00002AA101800900124054A02230846214629
:1035F000FFF7D6F822B0B0BD8021024AFFF7E8FB02
:10360000D8470010C8470010B0B502AFA2B000689C
:10361000812207E0373402AB9B18DB1E1C70921E20
:10362000000A15D00F2304461C400A2C01D337345E
:1036300000E0303402ADAD18AD1E2C70040904D08A
:103640001C400A2CE6D23034E5E7901E521E00E002
:10365000501E81280ED281239A1A019202AA1018B4
:1036600000900124054A022308462146FFF798F8F6
:1036700022B0B0BD8021024AFFF7AAFBD847001054
:10368000C8470010F0B503AF8DB00C460278642A2D
:1036900012D329205043010B64204843101AC0B2B2
:1036A0004000164A135C252503AE73551018407868
:1036B00025367070242003E00A2A06D226201146FF
:1036C00030220A4303A90A5409E051000B4A535C13
:1036D000252003AD2B5451184978253569702721D1
:1036E000091A019103A9081800900121044A002336
:1036F0002046FFF755F80DB0F0BDC046DA47001080
:10370000B8460010F0B503AF91B004910168C81736
:10371000039141400A1A364C2726A2422ED915465B
:10372000069628463349FDF78DFD0590611C4143FF
:10373000691A8AB2920830484243520C53002F480B
:10374000C05C07ACA419261F30702C48C018407804
:103750007070069E64205043081A80B24000274AC9
:10376000115C1346A21E224C11701818407850703C
:10377000059A361F224885421546D1D8632A1FD99B
:1037800090B280081C494143490C64204843101AF8
:1037900080B24000194A135CB61E07ACA355A319AA
:1037A0001018407858700A290DD34900134A535C09
:1037B000B01E07AC2354231851184978597007E0FC
:1037C00011460A29F1D230200143701E07AA115474
:1037D0002721091A019107A9081800900398C043EE
:1037E000C10F084A00230498FEF7DAFF11B0F0BDBC
:1037F0000F270000102700007B140000DA4700109C
:10380000FFE0F505B8460010F0B503AF8FB00291A8
:103810000268354C2726A2422ED915460496284622
:103820003249FDF70FFD0390611C4143691A8AB2CA
:1038300092082F484243520C53002E48C05C05ACFE
:10384000A419261F30702B48C01840787070049E51
:1038500064205043081A80B24000264A115C134687
:10386000A21E214C1170181840785070039A361F10
:10387000214885421546D1D8632A1FD990B28008C5
:103880001B494143490C64204843101A80B2400050
:10389000184A135CB61E05ACA355A319101840783E
:1038A00058700A290DD34900124A535CB01E05AC6A
:1038B0002354231851184978597007E011460A29F2
:1038C000F1D230200143701E05AA11542721091A94
:1038D000019105A9081800900121084A00230298C7
:1038E000FEF75EFF0FB0F0BD0F27000010270000AD
:1038F0007B140000DA470010FFE0F505B846001021
:1039000080B500AF02684068C3681046984780BD24
:1039100080B500AF0B4606C81846FFF793F880BD88
:10392000D0B502AF93060BD4002A08D01F2354420F
:103930001A4091401C400346E34019439040D0BDDB
:103940001F210A40014691400020D0BDF0B503AFD1
:1039500084B00393144602910190050C92B2009238
:103960002946514382B2230C16465E43002071184B
:1039700040410E0C0004861908045D4300994A4337
:1039800010187541029A62430399019B59438918A3
:10399000691804B0F0BD10B584B002AC009400F01A
:1039A00005F8029A039B04B010BDFEDED0B502AF4D
:1039B00000F005F8BC68002C00D00CC4D0BDF0B5F8
:1039C00003AF89B01C46164605460593002A7ED0F3
:1039D000002C7CD1002900D107E1B14200D30BE1DA
:1039E0000695330C9942354600D820E12C0AA142B5
:1039F00000D821E12A09914200D822E10496A808C2
:103A0000814200D8054608906E0801200025B14289
:103A1000039000D9284607909942039B00D92B4672
:103A20001B01A142039C089800D92C46E400E3182E
:103A30009142039A00D92A4692009A18814203982B
:103A400000D928460891400010181F2607994018F1
:103A5000344601D020210C1A049805992246FFF71C
:103A60005FFF2640039AB2400795089E069D08E036
:103A700025461E46069880088A078018089A9208EC
:103A800089082C1A069433468B41089209D4079C66
:103A90001443039A934200D2C6E007941E46069C44
:103AA00001E02C463346069042080846CD075219DD
:103AB0004D08A21AAE41DBD408984008079C044385
:103AC0000398864200D2F1E007941546D2E7002021
:103AD000AA1B0A46059B9A4100D281E000297FD0AB
:103AE000069504960D0CAC42084600D890E0020AF8
:103AF000944200D891E002920209944200D8104604
:103B0000039282082646944200D810460792440841
:103B1000012300203246A642089300D903460193B0
:103B2000AA42089C029A00D9044624019642089DA4
:103B3000079A00D90546ED002C19039B9E42089B6D
:103B4000049D00D903469B00E31834469642089A28
:103B500000D9024652009A18019BD21894401F23A4
:103B600053406E08DE4026439540089B93400893DF
:103B70000BE004460695194607988008B207851899
:103B8000089880080890B6082046069A0795551BA5
:103B90000B46B34108D4089908430499691A194699
:103BA000059A914102D217E015460B46079949083C
:103BB000F407091974086A1A1946A141D9D4089B57
:103BC0005C0804430498101A0846059B9841204657
:103BD000069215460B46CFD200212A4609B0F0BD09
:103BE0000B4601462A4609B0F0BD28463146FDF78E
:103BF00029FB4643AD1B64E02AD128460C46FDF75D
:103C000021FB44432D1B002301212A4609B0F0BDAE
:103C10002846020A944200D96DE710460292020932
:103C2000944200D86BE76BE7069E049D40E01D467A
:103C30002C0AA14200D9DDE625462A09914200D985
:103C4000DCE615460496A808814200D8DAE6DAE6F2
:103C5000089408460C463146FDF7F4FA3146024610
:103C60004143631A300C31D1280C190406950D1804
:103C7000284631460592FDF7E5FA04463046604392
:103C8000281A0004069989B2451828463146FDF7DE
:103C9000D9FA059A01464643AD1B20040843210C7E
:103CA0000A43114600232A4609B0F0BD049D16467A
:103CB00030462946FDF7C6FA0146204608434D43E3
:103CC000751B002319462A4609B0F0BDA81B1846EB
:103CD0000599884104D2002011462A4609B0F0BD5A
:103CE0000592012270080899C90709180496F0077F
:103CF0000692D607002207E03546079E08988008FE
:103D00008C070019B608890808902C1A18468841B3
:103D1000079606D43243069B984215D3264603469F
:103D200000E02E4608984008CC0700194D08341AC8
:103D30001846A841E0D4079E73081A43069B984290
:103D400002D325460346D9E715462046049E314650
:103D5000FDF778FA0146284608434E43A51B002389
:0C3D600005992A4609B0F0BDFEE7D4D456
:103D70002F686F6D652F657268616E6E69732F2E87
:103D8000636172676F2F72656769737472792F73DD
:103D900072632F696E6465782E6372617465732E29
:103DA000696F2D3666313764323262626131353087
:103DB0003031662F7270323034302D68616C2D30A6
:103DC0002E31302E312F7372632F756172742F7004
:103DD00065726970686572616C2E7273703D001057
:103DE0006C0000005301000009000000000000000A
:103DF000617474656D707420746F206D756C746976
:103E0000706C792077697468206F766572666C6F64
:103E1000770000000000000000000000000000002B
:103E2000617474656D707420746F206164642077B0
:103E3000697468206F766572666C6F7700000000A9
:103E4000617474656D707420746F20646976696440
:103E500065206279207A65726F4572726F7255744F
:103E600066384572726F7276616C69645F75705FF7
:103E7000746F0000F504001004000000040000004E
:103E8000D50200106572726F725F6C656E00000083
:103E9000F50400100400000004000000910200106E
:103EA000536F6D654E6F6E6520202020F504001065
:103EB00004000000040000006D0200104261644133
:103EC0007267756D656E7400F704001000000000E5
:103ED00001000000FD010010F5020010CD040010EB
:103EE000F70400100000000001000000350200107F
:103EF000E1030010E10400107372632F6D61696EBD
:103F00002E727300F83E00100B000000220000002B
:103F100034000000F83E00100B00000026000000F6
:103F2000BB000000F83E00100B000000270000005E
:103F30002D00000048656C6C6F20576F726C642018
:103F40003020210D0A000000343F00100E00000058
:103F5000423F00100300000048656C6C6F20576FF3
:103F6000726C642031200000583F00100E000000E9
:103F7000423F001003000000F83E00100B0000005C
:103F80006E0000000900000063616C6C65642060D5
:103F9000526573756C743A3A756E77726170282940
:103FA00060206F6E20616E206045727260207661C5
:103FB0006C756500F50400100800000004000000A6
:103FC0000D050010F83E00100B0000006600000018
:103FD0003D000000F83E00100B0000005A000000F9
:103FE0003D000000F7040010000000000100000088
:103FF000F9040010F83E00100B0000005200000011
:1040000039000000F83E00100B00000051000000D5
:1040100039000000F704001000000000010000005B
:1040200055050010F83E00100B0000004500000090
:104030000B000000F83E00100B00000038000000EC
:104040000B000000250C001004000000040000001C
:10405000190C0010756E7361666520707265636F70
:104060006E646974696F6E2873292076696F6C615C
:104070007465643A207074723A3A636F70795F6E57
:104080006F6E6F7665726C617070696E67207265B5
:10409000717569726573207468617420626F7468E9
:1040A00020706F696E74657220617267756D656EE0
:1040B00074732061726520616C69676E656420614C
:1040C0006E64206E6F6E2D6E756C6C20616E642058
:1040D00074686520737065636966696564206D65E1
:1040E0006D6F72792072616E67657320646F206EE8
:1040F0006F74206F7665726C617000002F686F6D51
:10410000652F657268616E6E69732F2E63617267C9
:104110006F2F72656769737472792F7372632F6979
:104120006E6465782E6372617465732E696F2D36C7
:104130006631376432326262613135303031662F38
:104140006465666D742D302E332E372F7372632F96
:10415000656E636F64696E672F727A636F62732E28
:10416000727300000000000000000000000000006A
:10417000617474656D707420746F207375627472ED
:104180006163742077697468206F766572666C6FFE
:1041900077000000FC400010660000004F000000A7
:1041A00011000000000000000000000000000000FE
:1041B000617474656D707420746F2061646420771D
:1041C000697468206F766572666C6F77FC400010CA
:1041D0006600000043000000110000002F686F6DB2
:1041E000652F657268616E6E69732F2E63617267E9
:1041F0006F2F72656769737472792F7372632F6999
:104200006E6465782E6372617465732E696F2D36E6
:104210006631376432326262613135303031662F57
:104220006465666D742D7274742D302E342E312FAA
:104230007372632F6368616E6E656C2E727300001B
:10424000DC41001062000000250000001F0000009B
:10425000DC41001062000000480000001000000077
:10426000DC410010620000004A0000001D00000058
:10427000DC410010620000004C0000005200000011
:10428000DC41001062000000720000000900000024
:10429000DC41001062000000740000000900000012
:1042A0006465666D74206C6F676765722074616BFE
:1042B000656E207265656E7472616E746C79000053
:1042C000A04200101E0000002F686F6D652F657200
:1042D00068616E6E69732F2E636172676F2F7265EE
:1042E0006769737472792F7372632F696E6465786E
:1042F0002E6372617465732E696F2D366631376473
:1043000032326262613135303031662F6465666DFC
:10431000742D7274742D302E342E312F7372632FDE
:104320006C69622E72730000C84200105E000000CB
:104330003A0000000D0000007D1100100000000098
:10434000010000001B120010E510001069110010A0
:104350003843001000000000FF2F686F6D652F6567
:104360007268616E6E69732F2E636172676F2F7250
:10437000656769737472792F7372632F696E6465F0
:10438000782E6372617465732E696F2D36663137CE
:104390006432326262613135303031662F64656675
:1043A0006D742D302E332E372F7372632F6C69622C
:1043B0002E727300594300105A0000006F01000074
:1043C00005000000000000000000000000000000E8
:1043D000617474656D707420746F206164642077FB
:1043E000697468206F766572666C6F7700000000F4
:1043F000617474656D707420746F2064697669648B
:1044000065206279207A65726F000000000000006C
:10441000617474656D707420746F2073756274724A
:104420006163742077697468206F766572666C6F5B
:10443000772F686F6D652F657268616E6E69732F77
:104440002E636172676F2F72656769737472792F5B
:104450007372632F696E6465782E6372617465731D
:104460002E696F2D366631376432326262613135C2
:10447000303031662F66756769742D302E332E37D4
:104480002F7372632F726174652E72733144001042
:104490005B0000004B020000010000002F686F6D00
:1044A000652F657268616E6E69732F2E6361726726
:1044B0006F2F72656769737472792F7372632F69D6
:1044C0006E6465782E6372617465732E696F2D3624
:1044D0006631376432326262613135303031662F95
:1044E0007270323034302D68616C2D302E31302EA8
:1044F000312F7372632F636C6F636B732F6D6F64F7
:104500002E7273009C440010670000002602000019
:10451000130000009C440010670000002B02000004
:104520001F0000000000000000000000000000006C
:10453000617474656D707420746F206D756C74692E
:10454000706C792077697468206F766572666C6F1D
:10455000770000009C440010670000002B02000060
:10456000130000009C4400106700000034020000AB
:10457000090000009C4400106700000037020000A2
:104580000A000000696E7465726E616C206572725B
:104590006F723A20656E746572656420756E72651F
:1045A00061636861626C6520636F64653A2054687A
:1045B0006973204D4355206F6E6C792068617320BC
:1045C0003220636F7265732E844500104400000032
:1045D0002F686F6D652F657268616E6E69732F2E1F
:1045E000636172676F2F72656769737472792F7375
:1045F00072632F696E6465782E6372617465732EC1
:10460000696F2D366631376432326262613135301E
:104610003031662F7270323034302D68616C2D303D
:104620002E31302E312F7372632F73696F2E727398
:10463000D045001060000000710000001200000072
:104640002F686F6D652F657268616E6E69732F2EAE
:10465000636172676F2F72656769737472792F7304
:1046600072632F696E6465782E6372617465732E50
:10467000696F2D36663137643232626261313530AE
:104680003031662F7270323034302D68616C2D30CD
:104690002E31302E312F7372632F756172742F7724
:1046A00072697465722E72734046001068000000D3
:1046B000460000002000000029000000B84600105D
:1046C000000000003A63616C6C656420604F707498
:1046D000696F6E3A3A756E77726170282960206F43
:1046E0006E206120604E6F6E65602076616C75652E
:1046F000B846001000000000C44600100100000091
:10470000C44600100100000070616E69636B65644F
:10471000206174203A0A0000A71E0010000000006B
:1047200001000000A91E00106C6962726172792F8D
:10473000636F72652F7372632F70616E69636B694B
:104740006E672E7273000000284700101D000000E5
:104750009C000000050000006578706C6963697456
:104760002070616E69630000584700100E00000061
:104770003A200000B846001000000000704700100A
:1047800002000000A51E00100C0000000400000044
:10479000252100108D23001031260010207B202CB5
:1047A00020207B0A2C0A7D207D28280A2C6C696237
:1047B000726172792F636F72652F7372632F666DEA
:1047C000742F6E756D2E7273AD4700101B000000C4
:1047D000690000001700000030783030303130328E
:1047E000303330343035303630373038303931309E
:1047F000313131323133313431353136313731388D
:10480000313932303231323232333234323532367B
:104810003237323832393330333133323333333461
:104820003335333633373338333934303431343247
:10483000343334343435343634373438343935302D
:10484000353135323533353435353536353735381C
:10485000353936303631363236333634363536360B
:1048600036373638363937303731373237333734F1
:1048700037353736373737383739383038313832D7
:1048800038333834383538363837383838393930BD
:1048900039313932393339343935393639373938AC
:1048A000393972616E676520737461727420696E44
:1048B00064657820206F7574206F662072616E6762
:1048C0006520666F7220736C696365206F66206C6B
:1048D000656E677468200000A24800101200000096
:1048E000B448001022000000010101010101010192
:1048F00001010101010101010101010101010101A8
:104900000101010101010101010101010101010197
:104910000101010101010101010101010101010187
:104920000101010101010101010101010101010177
:104930000101010101010101010101010101010167
:104940000101010101010101010101010101010157
:104950000101010101010101010101010101010147
:10496000010101010101010100000000000000003F
:104970000000000000000000000000000000000037
:104980000000000000000000000000000000000027
:104990000000000000000000000000000000000017
:1049A00000000000000000000000020202020202FB
:1049B00002020202020202020202020202020202D7
:1049C00002020202020202020303030303030303BF
:1049D00003030303030303030404040404000000AB
:0849E0000000000000000000CF
:1049E80053454747455220525454000000000000E8
:1049F8000100000000000000E8FB032000FC032089
:104A08000004000000000000000000000100000099
:084A18006465666D7400000086
:04000005100001C125
:00000001FF
